:020000040800F2
:100000000000022079350008F5190008F7190008EA
:10001000F9190008FB190008FD190008000000008C
:10002000000000000000000000000000FF190008B0
:10003000011A000800000000031A0008051A000851
:10004000C9350008C9350008C9350008C935000898
:10005000C9350008C9350008C9350008C935000888
:10006000C9350008C9350008C9350008C935000878
:10007000C9350008C9350008C9350008C935000868
:100080000D1A0008C9350008C9350008C93500082F
:10009000C9350008C9350008C9350008C935000848
:1000A000C9350008C9350008C9350008C935000838
:1000B000C9350008C9350008C9350008C935000828
:1000C000C9350008C9350008C9350008C935000818
:1000D000C9350008C9350008C9350008C935000808
:1000E000C9350008C9350008C9350008C9350008F8
:1000F000C9350008C9350008C9350008C9350008E8
:10010000C9350008C9350008C9350008C9350008D7
:10011000C9350008C93500081D1A0008C93500088E
:10012000351A0008C9350008C9350008C935000866
:10013000C9350008C9350008C9350008C9350008A7
:10014000C9350008C9350008C9350008C935000897
:10015000C9350008C9350008C9350008C935000887
:10016000C9350008C9350008C9350008C935000877
:10017000C9350008C9350008C9350008000000006D
:08018000C9350008C93500086B
:1001880010B5054C237833B9044B13B10448AFF3C9
:1001980000800123237010BD7400002000000000BF
:1001A800D04C000808B5034B1BB103490348AFF313
:1001B800008008BD0000000078000020D04C000836
:1001C80081F0004102E000BF83F0004330B54FEA00
:1001D80041044FEA430594EA050F08BF90EA020F6D
:1001E8001FBF54EA000C55EA020C7FEA645C7FEA00
:1001F800655C00F0E2804FEA5454D4EB5555B8BF23
:100208006D420CDD2C4480EA020281EA030382EA93
:10021800000083EA010180EA020281EA0303362D25
:1002280088BF30BD11F0004F4FEA01314FF4801CF8
:100238004CEA113102D0404261EB410113F0004F0A
:100248004FEA03334CEA133302D0524263EB4303C1
:1002580094EA050F00F0A780A4F10104D5F1200E5F
:100268000DDB02FA0EFC22FA05F2801841F10001BA
:1002780003FA0EF2801843FA05F359410EE0A5F18E
:1002880020050EF1200E012A03FA0EFC28BF4CF0BF
:10029800020C43FA05F3C01851EBE37101F0004575
:1002A80007D54FF0000EDCF1000C7EEB00006EEB82
:1002B8000101B1F5801F1BD3B1F5001F0CD349080C
:1002C8005FEA30004FEA3C0C04F101044FEA445263
:1002D80012F5800F80F09A80BCF1004F08BF5FEAEA
:1002E800500C50F1000041EB045141EA050130BDCA
:1002F8005FEA4C0C404141EB010111F4801FA4F16D
:100308000104E9D191F0000F04BF01460020B1FAC1
:1003180081F308BF2033A3F10B03B3F120020CDAF9
:100328000C3208DD02F1140CC2F10C0201FA0CF0D7
:1003380021FA02F10CE002F11402D8BFC2F1200C3C
:1003480001FA02F120FA0CFCDCBF41EA0C019040F2
:10035800E41AA2BF01EB0451294330BD6FEA04043B
:100368001F3C1CDA0C340EDC04F11404C4F1200226
:1003780020FA04F001FA02F340EA030021FA04F338
:1003880045EA030130BDC4F10C04C4F1200220FA8F
:1003980002F001FA04F340EA0300294630BD21FACD
:1003A80004F0294630BD94F0000F83F4801306BF93
:1003B80081F480110134013D4EE77FEA645C18BF87
:1003C8007FEA655C29D094EA050F08BF90EA020F1E
:1003D80005D054EA000C04BF1946104630BD91EA16
:1003E800030F1EBF0021002030BD5FEA545C05D119
:1003F8004000494128BF41F0004130BD14F5800458
:100408003CBF01F5801130BD01F0004545F0FE41CB
:1004180041F470014FF0000030BD7FEA645C1ABF00
:10042800194610467FEA655C1CBF0B46024650EA37
:10043800013406BF52EA033591EA030F41F4002163
:1004480030BD00BF90F0000F04BF0021704730B5E9
:100458004FF4806404F132044FF000054FF00001BE
:1004680050E700BF90F0000F04BF0021704730B57F
:100478004FF4806404F1320410F0004548BF404254
:100488004FF000013EE700BF42004FEAE2014FEAA9
:1004980031014FEA02701FBF12F07F4393F07F4F84
:1004A80081F06051704732F07F4208BF704793F087
:1004B8007F4F04BF41F40021704730B54FF460749A
:1004C80001F0004521F000411CE700BF50EA01029D
:1004D80008BF704730B54FF000050AE050EA010246
:1004E80008BF704730B511F0004502D5404261EBB6
:1004F80041014FF4806404F132045FEA915C3FF4F7
:10050800D8AE4FF003025FEADC0C18BF03325FEA93
:10051800DC0C18BF033202EBDC02C2F1200300FA44
:1005280003FC20FA02F001FA03FE40EA0E0021FA69
:1005380002F11444BDE600BF70B54FF0FF0C4CF457
:10054800E06C1CEA11541DBF1CEA135594EA0C0F09
:1005580095EA0C0F00F0DEF82C4481EA030621EA44
:100568004C5123EA4C5350EA013518BF52EA03357F
:1005780041F4801143F4801338D0A0FB02CE4FF031
:100588000005E1FB02E506F00042E0FB03E54FF061
:100598000006E1FB03569CF0000F18BF4EF0010E59
:1005A800A4F1FF04B6F5007F64F5407404D25FEA55
:1005B8004E0E6D4146EB060642EAC62141EA555108
:1005C8004FEAC52040EA5E504FEACE2EB4F1FD0C4A
:1005D80088BFBCF5E06F1ED8BEF1004F08BF5FEAC8
:1005E800500E50F1000041EB045170BD06F000467A
:1005F80046EA010140EA020081EA0301B4EB5C0427
:10060800C2BFD4EB0C0541EA045170BD41F480111E
:100618004FF0000E013C00F3AB8014F1360FDEBF43
:10062800002001F0004170BDC4F10004203C35DA1F
:100638000C341BDC04F11404C4F1200500FA05F3A2
:1006480020FA04F001FA05F240EA020001F0004243
:1006580021F0004110EBD37021FA04F642EB0601B9
:100668005EEA430E08BF20EAD37070BDC4F10C04E3
:10067800C4F1200500FA04F320FA05F001FA04F2A7
:1006880040EA020001F0004110EBD37041F1000193
:100698005EEA430E08BF20EAD37070BDC4F120059E
:1006A80000FA05F24EEA020E20FA04F301FA05F206
:1006B80043EA020321FA04F001F0004121FA04F2AE
:1006C80020EA020000EBD3705EEA430E08BF20EA7E
:1006D800D37070BD94F0000F0FD101F000464000B8
:1006E80041EB010111F4801F08BF013CF7D041EA3A
:1006F800060195F0000F18BF704703F0004652003E
:1007080043EB030313F4801F08BF013DF7D043EA0E
:100718000603704794EA0C0F0CEA135518BF95EAC4
:100728000C0F0CD050EA410618BF52EA4306D1D14B
:1007380081EA030101F000414FF0000070BD50EA6A
:10074800410606BF1046194652EA430619D094EAF4
:100758000C0F02D150EA013613D195EA0C0F05D1DE
:1007680052EA03361CBF104619460AD181EA030132
:1007780001F0004141F0FE4141F470014FF00000EA
:1007880070BD41F0FE4141F4780170BD70B54FF085
:10079800FF0C4CF4E06C1CEA11541DBF1CEA135505
:1007A80094EA0C0F95EA0C0F00F0A7F8A4EB0504E7
:1007B80081EA030E52EA03354FEA013100F08880DE
:1007C8004FEA03334FF0805545EA131343EA1263A7
:1007D8004FEA022245EA111545EA10654FEA00265C
:1007E8000EF000419D4208BF964244F1FD0404F515
:1007F800407402D25B084FEA3202B61A65EB030571
:100808005B084FEA32024FF480104FF4002CB6EB2D
:10081800020E75EB030E22BFB61A754640EA0C00AD
:100828005B084FEA3202B6EB020E75EB030E22BFED
:10083800B61A754640EA5C005B084FEA3202B6EB2E
:10084800020E75EB030E22BFB61A754640EA9C00ED
:100858005B084FEA3202B6EB020E75EB030E22BFBD
:10086800B61A754640EADC0055EA060E18D04FEA7B
:10087800051545EA16754FEA06164FEAC30343EA1B
:1008880052734FEAC2025FEA1C1CC0D111F4801FE8
:100898000BD141EA00014FF000004FF0004CB6E7E1
:1008A80011F4801F04BF01430020B4F1FD0C88BF80
:1008B800BCF5E06F3FF6AFAEB5EB030C04BFB6EB8B
:1008C800020C5FEA500C50F1000041EB045170BD7E
:1008D8000EF0004E4EEA113114EB5C04C2BFD4EBAB
:1008E8000C0541EA045170BD41F480114FF0000E2F
:1008F800013C90E645EA060E8DE60CEA135594EAAB
:100908000C0F08BF95EA0C0F3FF43BAF94EA0C0FAD
:100918000AD150EA01347FF434AF95EA0C0F7FF422
:1009280025AF104619462CE795EA0C0F06D152EA76
:1009380003353FF4FDAE1046194622E750EA41065A
:1009480018BF52EA43067FF4C5AE50EA41047FF46B
:100958000DAF52EA43057FF4EBAE12E74FF0FF3CD0
:1009680006E000BF4FF0010C02E000BF4FF0010CA1
:100978004DF804CD4FEA410C7FEA6C5C4FEA430C1A
:1009880018BF7FEA6C5C1BD001B050EA410C0CBF69
:1009980052EA430C91EA030F02BF90EA020F0020CB
:1009A800704710F1000F91EA030F58BF994208BF32
:1009B80090422CBFD8176FEAE37040F001007047EF
:1009C8004FEA410C7FEA6C5C02D150EA013C07D146
:1009D8004FEA430C7FEA6C5CD6D152EA033CD3D091
:1009E8005DF8040B704700BF8446104662468C468B
:1009F8001946634600E000BF01B5FFF7B7FF0028BE
:100A080048BF10F1000F01BD4DF808EDFFF7F4FFE6
:100A18000CBF012000205DF808FB00BF4DF808ED71
:100A2800FFF7EAFF34BF012000205DF808FB00BF94
:100A38004DF808EDFFF7E0FF94BF012000205DF8B6
:100A480008FB00BF4DF808EDFFF7CEFF94BF01206B
:100A580000205DF808FB00BF4DF808EDFFF7C4FF64
:100A680034BF012000205DF808FB00BF4FEA410CAD
:100A78007FEA6C5C02D150EA013C0AD14FEA430C90
:100A88007FEA6C5C02D152EA033C02D14FF00000CD
:100A980070474FF0010070474FEA410212F500120B
:100AA80015D211D56FF47873B3EB625212D94FEAAD
:100AB800C12343F0004343EA505311F0004F23FA97
:100AC80002F018BF404270474FF00000704750EAEC
:100AD800013005D111F0004008BF6FF000407047A9
:100AE8004FF00000704700BF4FEA4102B2F1E04307
:100AF80024BFB3F5001CDCF1FE5C0DD901F0004CFD
:100B08004FEAC0024CEA5070B2F1004F40EB83004C
:100B180008BF20F00100704711F0804F21D113F178
:100B28003872BCBF01F00040704741F480114FEAB1
:100B38005252C2F11802C2F1200C10FA0CF320FA3A
:100B480002F018BF40F001004FEAC1234FEAD32357
:100B580003FA0CFC40EA0C0023FA02F34FEA4303C1
:100B6800CCE77FEA625307D150EA01331EBF4FF04A
:100B7800FE4040F44000704701F0004040F0FE4065
:100B880040F40000704700BF53B94AB9002908BFB4
:100B980000281CBF4FF0FF314FF0FF3000F074B950
:100BA800ADF1080C6DE904CE00F006F8DDF804E0BC
:100BB800DDE9022304B070472DE9F047089E04469A
:100BC8008846002B40F085808A42154648D9B2FAFB
:100BD80082F24AB1C2F1200701FA02F320FA07F7BC
:100BE800954047EA030894404FEA154E230CB8FB9A
:100BF800FEF71FFA85FC0EFB178843EA084307FB3C
:100C08000CF1994209D9EB1807F1FF3080F0E38025
:100C1800994240F2E080023F2B445B1AA4B2B3FB36
:100C2800FEF00EFB103344EA034400FB0CFCA44521
:100C380009D92C1900F1FF3380F0CB80A44540F28C
:100C4800C88002382C4440EA0740A4EB0C04002773
:100C58001EB1D4400023C6E900433946BDE8F087F9
:100C6800002A53D0B2FA82F2002A40F0B680491B1B
:100C78004FEA154E1FFA85F80127B1FBFEFC230C3D
:100C88000EFB1C1143EA014308FB0CF1994207D9FA
:100C9800EB180CF1FF3002D2994200F2EC80844646
:100CA800591AA3B2B1FBFEF00EFB101443EA044438
:100CB80008FB00F8A04507D92C1900F1FF3302D230
:100CC800A04500F2DC801846A4EB080440EA0C407A
:100CD800BEE78B4208D9002E78D00027C6E900016C
:100CE80038463946BDE8F087B3FA83F77FB98B42B7
:100CF80002D3824200F2BD80841A61EB0303012013
:100D08009846002EA9D0C6E90048A6E7FFDEC7F13D
:100D18002005BB4022FA05FC4CEA030C01FA07F453
:100D280020FA05F821FA05F34FEA1C4E48EA0404B4
:100D3800B3FBFEF9210C0EFB19331FFA8CF841EABC
:100D4800034309FB08FA9A4502FA07F200FA07F189
:100D58000BD91CEB030309F1FF3080F088809A451A
:100D680040F28580A9F102096344A3EB0A03A4B207
:100D7800B3FBFEF00EFB103344EA034400FB08F813
:100D8800A04508D91CEB040400F1FF336BD2A04541
:100D980069D90238644440EA0940A4EB0804A0FB7E
:100DA80002894C45C6464B4654D351D0002E69D0D3
:100DB800B1EB0E0264EB030404FA05F522FA07F31B
:100DC800FC401D43C6E90054002746E73746304635
:100DD80043E7184637E707461FE7C2F1200320FA22
:100DE80003F7954001FA02F021FA03F34FEA154E92
:100DF8003843010CB3FBFEF71FFA85F80EFB1733D7
:100E080041EA034107FB08F38B4204FA02F407D9CD
:100E1800691807F1FF3C28D28B4226D9023F2944A2
:100E2800CB1A81B2B3FBFEF00EFB103341EA03414B
:100E380000FB08F38B4207D9691800F1FF3C10D278
:100E48008B420ED902382944C91A40EA074714E7E9
:100E58004145ABD2B8EB020E69EB0C0201381346E0
:100E6800A4E76046F0E7184695E76746D8E7814665
:100E78007BE7384645E7ACF1020C2B4410E7023813
:100E88002C4421E73746E8E6704700BF2DE9F041DA
:100E98008CB000240794089409940A940B94019444
:100EA8004C4B1A6B42F004021A631A6B02F00402EC
:100EB8000192019A02941A6B42F080021A631A6B2B
:100EC80002F080020292029A03941A6B42F0010225
:100ED8001A631A6B02F001020392039A04941A6BC4
:100EE80042F002021A631A6B02F002020492049A98
:100EF80005941A6B42F010021A631A6B02F0100282
:100F08000592059A06941A6B42F008021A631B6B45
:100F180003F008030693069B2F4F0122114638461B
:100F280001F082FC2D4E22464FF47041304601F00C
:100F38007BFC01250795089509940A9407A938466A
:100F480001F08EFB0795264B08930994A7F50067D7
:100F580007A9384601F084FB0423079308940994F1
:100F680007A9204801F07CFB4FF40078CDF81C80DD
:100F78001D4B0893099407A91C4801F071FB4FF415
:100F880070430793089509940A9407A9304601F01D
:100F980067FBCDF81C800894099407A9384601F02E
:100FA8005FFB4FF4E05307930223089309940A94D4
:100FB8000A230B9307A9384601F052FB2023079315
:100FC8000894099407A9304601F04AFB0CB0BDE823
:100FD800F08100BF0038024000080240000C0240C7
:100FE800000012100004024000001110001002401E
:100FF80010B582B000240094124B1A6B42F4001210
:101008001A631A6B02F400120092009A01941A6B88
:1010180042F480021A631B6B03F480030193019B63
:1010280022462146102001F025FE102001F056FE30
:1010380022462146382001F01DFE382001F04EFEE0
:1010480002B010BD0038024030B585B000230093CF
:10105800019302930393114C114A22604FF480329A
:101068006260A3602361237684F820304FF08052B9
:10107800E2624FF0C062A262E3600125E56184F894
:1010880030506561204601F05FFF0095019502959B
:101098006946204602F08AF805B030BDF408002001
:1010A8000020014030B583B0002400940194084D1D
:1010B800084B2B60284602F041F924230093019441
:1010C80022466946284602F010FA03B030BD00BF38
:1010D8006C7E00200074004030B587B00024029474
:1010E800039404940594009401940F4D4FF08043A9
:1010F8002B606C60AC604FF42F73EB602C61AC61BB
:10110800284600F00FFF4FF48053029302A92846A7
:1011180000F02EFF2023009301946946284600F032
:1011280095FF07B030BD00BF2883002030B583B0DD
:10113800002400940194094D094B2B606C60AC604D
:10114800EC60AC61284600F0EDFE0094019469461D
:10115800284600F07BFF03B030BD00BFE07E0020D2
:101168000010004008B543F698220349034801F0EF
:1011780017FF00B1FEE708BD3C090020F408002075
:1011880000B583B00021009143F69823044A05482E
:1011980002F0E6F800B1FEE703B05DF804FB00BF1B
:1011A800688300206C7E002008B5034800F081FDAC
:1011B80000B1FEE708BD00BF2883002030B595B018
:1011C8003022002108A802F021FA00240394049494
:1011D80005940694079401941C4B1A6C42F08052B3
:1011E8001A641B6C03F080530193019B0294184B03
:1011F8001A6842F480421A601B6803F48043029321
:10120800029B012308934FF48033099302250E951E
:101218004FF480030F93082310934FF4A87311938E
:1012280012950723139308A800F036FF0F230393A2
:10123800049505944FF4A05306934FF480530793F5
:10124800052103A801F05EF915B030BD0038024051
:1012580000700040024A138843F00103138070476E
:1012680098F80020024A138843F00103138070475E
:1012780098F80020704700002DE9F04F2DED068BFF
:1012880085B08246894690461F46169DBDF85C404B
:10129800BDF8543007EE903AF8EEE77A9FED577AAA
:1012A80067EE877A9DED147AF8EE479AC7EEA97A29
:1012B80017EE900AFFF7E8F841EC180B41EC100B19
:1012C80002F0AEF951EC100BFFF70EFC09EE100A14
:1012D800B0EE480AF0EE680A02F002FA51EC100B80
:1012E800FFF702FC07EE900AF1EE678A002607E096
:1012F8000AEBC60383ED005AC3ED014A0136B6B2C4
:10130800BE4275D24FF07E5302934FF0000BCDF8DA
:101318000CB00093CDF804B006FB089307EE903AA2
:10132800F8EEE77A9FED357A67EE877AC7EEA97A05
:1013380017EE900AFFF7A8F841EC1A0B41EC100BD6
:1013480002F06EF951EC100BFFF7CEFB08EE100A15
:10135800B0EE4A0AF0EE6A0A02F0C2F951EC100B3C
:10136800FFF7C2FB07EE900AB1EE674A002304EECE
:1013780090BA05EE10BAA342BAD235F8132007EE98
:10138800902AF8EEE77ADDED026A67EEA67A9DED1F
:10139800007A27EE276A35EE065A9DED016A66EE59
:1013A800277A74EEA74A69EE265ADDED037A68EECD
:1013B800A73A75EEE35A68EEA66A69EE277A76EEE2
:1013C800A76ACDED036ACDED025A68EE077A64EE9E
:1013D800066A77EEE67A24EE077A28EE066A37EE92
:1013E800067A8DED017ACDED007A01339BB2C2E722
:1013F80005B0BDEC068BBDE8F08F00BFDB0FC94020
:10140800F0B52DED0A8B89B00F461446199EB3FB33
:10141800F1F5ADB207EE902AF8EEE77A9FED7F7A04
:10142800C7EE279A4FF07E51009100220192069153
:1014380007920491059207EE900AF8EEE77A9FED7D
:1014480078CA67EE8C7A07EE103AB8EE47BAC7EE5C
:101458008B7A17EE900AFFF717F841EC180B41EC5E
:10146800100B02F0DDF851EC100BFFF73DFB09EE15
:10147800100AB0EE480AF0EE680A02F031F951ECB1
:10148800100BFFF731FB08EE900A07EE907AF8EEA2
:10149800E77A67EE8C7AC7EE8B7A17EE900AFEF73A
:1014A800F3FF41EC1A0B41EC100B02F0B9F851ECC8
:1014B800100BFFF719FB08EE100AB0EE4A0AF0EE1F
:1014C8006A0A02F00DF951EC100BFFF70DFB0BEE59
:1014D800900ADDED187AF8EE677A67EE8C7AC7EE37
:1014E8008B7A17EE900AFEF7CFFF41EC1A0B41EC0E
:1014F800100B02F095F851EC100BFFF7F5FA0BEE14
:10150800100AB0EE4A0AF0EE6A0A02F0E9F851EC65
:10151800100BFFF7E9FA03EE900A00224BE09DED6D
:10152800007A67EE067A69EEA77AB7EE006A77EE78
:10153800867ADFED3C6A67EEA67AFCEEE77A17EE6C
:10154800903A26F8123069EE047A68EE836A77EEEC
:10155800E67A28EE844A29EE033A34EE034A8DED02
:10156800074ACDED067ADDED047A28EE276ADDED2F
:10157800056A6BEEA65A36EE656A6BEEA77A68EED8
:10158800266A77EEA67ACDED057A8DED046A6BEEC4
:10159800076ADDED017A23EEA76A76EEC66A23EEC6
:1015A800877A6BEE277A37EE277A8DED017ACDEDC3
:1015B800006A013292B2AA4229D29DED064A8DED07
:1015C800024A9DED073A8DED033A00239FED166A16
:1015D800A342A4D2DDED027A36EE276A9DED047AA5
:1015E80067EE876ADDED035A9DED055A65EE854A7B
:1015F80076EEE46A67EE857A27EE257A77EE877AC3
:10160800CDED037ACDED026A01339BB2E0E71A9B78
:101618001D8009B0BDEC0A8BF0BD00BF77BE7F3FCF
:10162800DB0FC9400000004500000000F0B52DEDBB
:10163800088BADF21C4D05461C46BDF85064DDF81C
:1016480054744FF07E530DF5826003609FED8B8AD2
:101658000DF2144080ED008A0DF5816003600DF2F3
:101668000C4383ED008A07EE901AF8EEE77A9FEDB7
:1016780084BA67EE8B7A07EE102AF8EEC76A87EE0F
:10168800A67A07EE906AF8EEE78AC7EE287A17EE90
:10169800900AFEF7F9FE41EC1A0B41EC100B01F031
:1016A800BFFF51EC100BFFF71FFA09EE900AB0EEDE
:1016B8004A0AF0EE6A0A02F013F851EC100BFFF731
:1016C80013FA09EE100ACBEE287A17EE900AFEF705
:1016D800DBFE41EC1A0B41EC100B01F0A1FF51ECC1
:1016E800100BFFF701FA08EE900AB0EE4A0AF0EE86
:1016F8006A0A01F0F5FF51EC100BFFF7F5F903EE5C
:10170800100A002147E025EE055A64EEA44A35EE9A
:10171800245A07EE901AF8EEE77AB0EE0C7A77EED4
:10172800877A25EE275A27EE855A0DEB810383ED3C
:10173800005A38EE058A69EEA37A29EE227A77EE06
:10174800C77A69EE233A69EEA22A73EEA23A0DF23D
:101758001443C3ED003A0DF58263C3ED007A0DF52D
:101768008163D3ED007A68EEA76A0DF20C4393ED1E
:10177800007A23EE076A76EEC66A63EE277A28EEC9
:10178800877A77EE877AC3ED007A0DF58163C3ED2A
:10179800006A013189B2B14251D20DF58263D3EDAD
:1017A800003A0DF58063C3ED003A0DF21443D3ED12
:1017B800002A0DF20443C3ED002A0023DFED2F4A6F
:1017C800B0EE645AA3429ED20DF58062D2ED007A43
:1017D80005EBC30292ED006A67EE865A0DF20440EB
:1017E80090ED007AD2ED016A27EE264A75EEC45ACA
:1017F80067EEA66A26EE076A76EE866A35EE255A01
:1018080074EEA64A0DF5816292ED006A67EE866A6B
:101818000DF20C42D2ED005A27EE254A76EEC46A44
:1018280067EEA57A27EE067A77EE877AC0ED007A1A
:101838000DF58062C2ED006A01339BB2C2E7002653
:1018480015E0B5000DEB0503D3ED007AC7EE887AF5
:1018580017EE900AFEF718FE41EC100B01F0A0FFFE
:101868003D4451EC100BFFF73FF928600136B442B4
:10187800E7DC0DF21C4DBDEC088BF0BD000000004C
:10188800DB0FC9402DE9F04186B001F071FAFFF78E
:1018980095FCFFF7FBFAFFF7ABFBFFF7D5FBFFF76C
:1018A80001FCFFF719FCFFF741FC474B00221A80A7
:1018B800FFF758FCFFF764FC0DF116030293434B46
:1018C800019349F640430093414B082210210846F2
:1018D800FFF796FDFFF768FC74E010262546631CA9
:1018E80003F001035A01D21A03EB8203C3EB03137B
:1018F8009A0097B201F062FA80460DF1160302933E
:10190800324A02EB4702019249F640430093304BBA
:10191800082210213046FFF773FD01F04FFAA0EBC3
:1019280008002C4B186001F049FA0646264B1B8824
:1019380013F0010FFAD0244A138883F001031380AF
:1019480001F03CFA801B244B186001F037FA064678
:1019580004F001035A01D21A03EB8203C3EB031309
:101968009A0092B2E101BDF8163003931B4B03EBCA
:101978004202029249F640430193154B0093082313
:1019880010221144164800EB8510FFF775FC01F092
:1019980015FA801B134B18600134E4B21F2C07D8CA
:1019A8001F2C9AD0661CF601B6B21036B6B295E76F
:1019B8000D4B01934FF48073009310221146084891
:1019C800FFF734FE0024E9E798F800206883002038
:1019D800C0D40100207F0020248300203C0900207F
:1019E8009000002090080020247F00207047FEE728
:1019F800FEE7FEE7FEE770477047704708B501F05D
:101A0800D1F908BD08B5024801F034F808BD00BF97
:101A18009408002008B5034801F037FD024800F09B
:101A28005FF908BD6C7E0020E07E002008B5024802
:101A380001F020F808BD00BF807E002000B583B00B
:101A4800002100910C4B5A6C42F480425A645A6C43
:101A580002F480420092009A01911A6C42F080527E
:101A68001A641B6C03F080530193019B072001F05B
:101A7800EFF803B05DF804FB0038024030B589B0D8
:101A8800002303930493059306930793026803F1D5
:101A9800804303F590339A4201D009B030BD044623
:101AA8000025019503F58C335A6C42F480725A6410
:101AB8005A6C02F480720192019A02951A6B42F0F4
:101AC80001021A631B6B03F001030293029B0223BA
:101AD80003930323049303A9114800F0C1FD11489F
:101AE800114B036045608560C5604FF480630361F6
:101AF8004FF4006343614FF4005383614FF48073E4
:101B0800C3614FF440330362456200F013FF18B914
:101B1800044BA3639C63C0E7FFF7ACFBF8E700BF87
:101B280000000240807E00201064024030B589B079
:101B38000023039304930593069307930268284BA5
:101B48009A4201D009B030BD04460025019503F53D
:101B5800E2331A6C42F000521A641A6C02F0005216
:101B68000192019A02951A6B42F001021A631B6BEB
:101B780003F001030293029B1023039303230493AE
:101B880003A9184800F06CFD1748184B03604FF084
:101B98006063436040238360C5604FF480630361E2
:101BA8004FF4006343614FF4005383614FF4807333
:101BB800C3614FF400330362456200F0BBFE58B9BD
:101BC800094BA3609C6300221146362001F052F8AD
:101BD800362001F083F8B5E7FFF74CFBF0E700BFCC
:101BE8000074004000000240940800208860024011
:101BF80000B583B00368B3F1804F05D0134A934210
:101C08000FD003B05DF804FB00230093104B1A6C4F
:101C180042F001021A641B6C03F001030093009B5D
:101C2800EFE7002101910A4B1A6C42F010021A6486
:101C38001B6C03F010030193019B0A46362001F048
:101C480019F8362001F04AF8DBE700BF0010004021
:101C58000038024010B4036A046A24F001040462E4
:101C6800846924F0F00444EA021223F00A030B43C7
:101C7800826103625DF8044B704710B4036A23F075
:101C8800100303628469036A24F4704444EA02324C
:101C980023F0A00343EA0113826103625DF8044B59
:101CA8007047836823F07003194341F0070181608E
:101CB8007047022380F83D300268936803F00703F9
:101CC800062B03D0136843F001031360012380F847
:101CD8003D30002070477047704770477047704725
:101CE80010B5044603681A6912F0020F11D0DA68B9
:101CF80012F0020F0DD06FF002021A610123037770
:101D080003689B6913F0030F70D0FFF7E6FF002309
:101D1800237723681A6912F0040F12D0DA6812F0D8
:101D2800040F0ED06FF004021A6102232377236890
:101D38009B6913F4407F5FD02046FFF7CEFF002356
:101D4800237723681A6912F0080F12D0DA6812F0A4
:101D5800080F0ED06FF008021A6104232377236856
:101D6800DB6913F0030F4ED02046FFF7B6FF0023C0
:101D7800237723681A6912F0100F12D0DA6812F06C
:101D8800100F0ED06FF010021A6108232377236812
:101D9800DB6913F4407F3DD02046FFF79EFF002308
:101DA800237723681A6912F0010F03D0DA6812F05A
:101DB800010F36D123681A6912F0800F03D0DA6850
:101DC80012F0800F34D123681A6912F0400F03D043
:101DD800DA6812F0400F32D123681A6912F0200F26
:101DE80003D0DA6812F0200F30D110BDFFF774FF6E
:101DF8002046FFF773FF8AE72046FFF76DFF20466E
:101E0800FFF76CFF9BE72046FFF766FF2046FFF7CA
:101E180065FFACE72046FFF75FFF2046FFF75EFF50
:101E2800BDE76FF001021A612046FFF754FFC1E7D2
:101E38006FF080021A61204600F02CF9C3E76FF0BA
:101E480040021A612046FFF74AFFC5E76FF02002FB
:101E58001A61204600F01DF9C7E700000368304A00
:101E6800904212D0B0F1804F0FD0A2F57C42904240
:101E78000BD002F58062904207D002F58062904252
:101E880003D002F57842904203D123F070034A68E8
:101E98001343234A90422AD0B0F1804F27D0A2F5AD
:101EA8007C42904223D002F5806290421FD002F516
:101EB800806290421BD002F57842904217D002F51A
:101EC8007052904213D002F5806290420FD002F512
:101ED800806290420BD0A2F59832904207D002F56A
:101EE8008062904203D002F58062904203D123F4CD
:101EF8004073CA68134323F080034A69134303609D
:101F08008B68C3620B688362054B984203D003F564
:101F18008063984201D10B690363012343617047D1
:101F280000000140B0B110B5044690F83D3063B1EF
:101F3800022384F83D30214651F8040BFFF78EFF49
:101F4800012384F83D30002010BD80F83C30FFF7B5
:101F58004FFEEDE70120704710B4846824F47F44F5
:101F680042EA03230B43234383605DF8044B704725
:101F780090F83C30012B67D010B50446012380F857
:101F88003C30022380F83D300268936823F47F4395
:101F980023F0770393600B68402B4BD013D9602B49
:101FA8003ED025D9702B2FD0B3F5005F19D1CB685F
:101FB8004A6889680068FFF7CFFF2268936843F48E
:101FC800804393600DE0102B04D008D9202B01D05A
:101FD800302B06D119462068FFF763FE01E0002B7D
:101FE800F8D0012384F83D30002084F83C0010BD6F
:101FF800502BF6D1CA6849680068FFF72BFE5021BC
:102008002068FFF74EFEECE7CB684A6889680068ED
:10201800FFF7A2FF2268936843F077039360E0E735
:10202800CA6849680068FFF728FE60212068FFF742
:1020380038FED6E7CA6849680068FFF70BFE4021FA
:102048002068FFF72EFECCE70220704790F83C305E
:10205800012B1CD070B4012680F83C60022380F864
:102068003D3002685568936825F070050C682C436C
:1020780023F080054B682B4354600268936080F816
:102088003D60002380F83C30184670BC7047022041
:102098007047704770470000002800F0B98170B59C
:1020A80082B00446036813F0010F3BD0A64B9B682F
:1020B80003F00C03042B2CD0A34B9B6803F00C03F8
:1020C800082B21D06368B3F5803F4FD0B3F5A02F1C
:1020D80052D09D4B1A6822F480321A601A6822F492
:1020E80080221A606368002B50D000F067FE054616
:1020F800954B1B6813F4003F14D100F05FFE401BA2
:102108006428F5D903208AE18F4B5B6813F4800FAC
:10211800D8D08D4B1B6813F4003F03D06368002BA5
:1021280000F07881236813F0020F54D0864B9B6827
:1021380013F00C0F3ED0844B9B6803F00C03082B64
:1021480033D0E368002B67D0804B01221A6000F07F
:1021580035FE05467C4B1B6813F0020F53D100F087
:102168002DFE401B0228F5D9032058E1764A136852
:1021780043F480331360B5E7734B1A6842F4802246
:102188001A601A6842F480321A60ABE700F016FE53
:1021980005466D4B1B6813F4003FC3D000F00EFEDC
:1021A800401B6428F5D9032039E1674B5B6813F4B9
:1021B800800FC6D1644B1B6813F0020F03D0E3688D
:1021C800012B40F02981604A136823F0F803216944
:1021D80043EAC1031360236813F0080F40D0636912
:1021E80063B35B4B01221A6000F0E8FD0546564BCD
:1021F8005B6F13F0020F33D100F0E0FD401B0228A3
:10220800F5D903200BE1504A136823F0F80321693C
:1022180043EAC1031360DEE74C4B00221A6000F06A
:10222800CDFD0546484B1B6813F0020FD3D000F0D4
:10223800C5FD401B0228F5D90320F0E0444B0022DD
:102248001A6000F0BBFD05463F4B5B6F13F0020FB1
:1022580006D000F0B3FD401B0228F5D90320DEE0CC
:10226800236813F0040F78D0374B1B6C13F0805F92
:1022780033D100230193344B1A6C42F080521A6414
:102288001B6C03F080530193019B0125314B1B68A4
:1022980013F4807F23D0A368012B34D0052B38D0CA
:1022A800294B1A6F22F001021A671A6F22F00402F2
:1022B8001A67A368002B36D000F080FD0646224B33
:1022C8001B6F13F0020F47D100F078FD801B41F21D
:1022D80088339842F3D90320A1E00025D6E71D4AA8
:1022E800136843F48073136000F068FD0646194BC9
:1022F8001B6813F4807FCED100F060FD801B02289C
:10230800F5D903208BE0104A136F43F001031367DC
:10231800CFE70D4B1A6F42F004021A671A6F42F0AA
:1023280001021A67C5E700F049FD0646064B1B6F18
:1023380013F0020F10D000F041FD801B41F28833EA
:102348009842F3D903206AE000380240000047426F
:10235800800E474200700040E5B9A369002B5DD0AC
:10236800314A926802F00C02082A5AD0022B17D080
:102378002E4B00221A6000F021FD04462A4B1B68F0
:1023880013F0007F42D000F019FD001B0228F5D998
:10239800032044E0244A136C23F080531364DCE7E1
:1023A800224B00221A6000F009FD05461E4B1B68EF
:1023B80013F0007F06D000F001FD401B0228F5D97C
:1023C80003202CE0E369226A1343626A43EA82131A
:1023D800A26A5208013A43EA0243E26A43EA026304
:1023E800114A5360114B01221A6000F0E7FC0446C1
:1023F8000D4B1B6813F0007F06D100F0DFFC001BBB
:102408000228F5D903200AE0002008E0002006E0B1
:1024180001207047012002E0012000E0002002B006
:1024280070BD0120FBE700BF003802406000474252
:10243800314B9B6803F00C03042B58D0082B58D160
:1024480070B52D4B5A6802F03F025B6813F4800F99
:102458002AD0294B5868C0F3881005460026430146
:102468001B1A66EB0604A10141EA93619801C01AA0
:1024780061EB0401CB0043EA5073C40019466019AC
:1024880046EB01014B0243EAD05344022046194669
:102498003346FEF779FB184B5B68C3F301430133FE
:1024A8005B00B0FBF3F070BD134B5868C0F38810A5
:1024B8000546002643011B1A66EB0604A10141EA02
:1024C80093619801C01A61EB0401CB0043EA507391
:1024D800C4001946601946EB01018B0243EA905388
:1024E8008402204619463346FEF74EFBD3E70348DD
:1024F80070470348704700BF0038024000127A0056
:102508000024F400002800F09A8070B50446504B6F
:102518001B6803F00F038B4208D2CBB24C4A1370EE
:10252800136803F00F038B4240F08B80236813F08D
:10253800020F17D013F0040F04D0464A936843F4EF
:10254800E0539360236813F0080F04D0414A93685E
:1025580043F4604393603F4A936823F0F003A06814
:10256800034393600D46236813F0010F32D063686C
:10257800012B21D09A1E012A25D9364A126812F059
:10258800020F60D033498A6822F0030213438B603C
:1025980000F014FC06462F4B9B6803F00C0362689E
:1025A800B3EB820F16D000F009FC801B41F2883390
:1025B8009842F0D9032041E0264A126812F4003FFD
:1025C800E0D101203AE0234A126812F0007FD9D105
:1025D800012033E01E4B1B6803F00F03AB4207D901
:1025E800EAB21B4B1A701B6803F00F03AB422CD1E5
:1025F800236813F0040F06D0164A936823F4E053B7
:10260800E1680B439360236813F0080F07D0114A61
:10261800936823F46043216943EAC1039360FFF799
:1026280007FF0C4B9B68C3F303130B4AD35CD840DA
:102638000A4B1860002000F075FB002070BD0120D7
:1026480070470120FAE70120F8E70120F6E700BF0C
:10265800003C024000380240F04C0008080000200E
:1026680000230F2B00F2D680F0B482B039E00722A5
:1026780000E00022B2403A430235674E46F8252072
:10268800664A1568E24302EA05064F6817F4803F78
:1026980001D044EA0506614D2E606D6802EA050620
:1026A8004F6817F4003F01D044EA05065B4D6E60A1
:1026B800AD6802EA05064F6817F4801F01D044EAA6
:1026C8000506564DAE60ED682A404E6816F4001FA8
:1026D80001D044EA0502514CE26001330F2B00F2AD
:1026E800968001229A400C681440A242F5D14D68A8
:1026F800022D01D0122D10D1DE08083650F826C060
:1027080003F00705AF000F25BD402CEA050C0D6945
:10271800BD4045EA0C0540F8265006685F000325D1
:10272800BD40ED4305EA060C4E6806F00306BE40C0
:1027380046EA0C0606604E6806F1FF3CBCF1010F44
:1027480003D9112E01D0122E10D1866805EA060C85
:10275800CE68BE4046EA0C068660466826EA020253
:102768004E68C6F300169E4016434660C268154080
:102778008A68BA402A43C2604A6812F0805FACD0C7
:1027880000220192264A556C45F480455564526CE6
:1027980002F480420192019A9D08AE1C1E4A52F82A
:1027A800267003F0030296000F22B24027EA0207C0
:1027B8001C4A90423FF45DAF02F5806290421AD005
:1027C80002F58062904218D002F58062904216D0DD
:1027D80002F58062904214D002F58062904212D0D5
:1027E80002F58062904210D002F5806290423FF478
:1027F8003EAF08223EE701223CE702223AE70322E5
:1028080038E7042236E7052234E7062232E702B029
:10281800F0BC7047704700BF00380140003C0140E1
:1028280000380240000002400AB181617047090483
:102838008161704730B405682C6824F480242C60CA
:10284800046863608368402B05D003689960036857
:10285800DA6030BC704703689A600368D960F8E7AB
:1028680010B40368D9B210390C4AA2FB014212090C
:102878000B4CA25CC2655F2909D923F47F7323F04E
:10288800030304338365806D5DF8044B704723F4BC
:102898007F7323F003038365F5E700BFABAAAAAAF9
:1028A800E84C0008836A826992B9012B0AD01BB1EF
:1028B800022B01D000207047C36A13F0807F28D113
:1028C80000207047C36AB3F1C07F24D0002070474E
:1028D800B2F5005F09D0022B25D9032B25D1C36A95
:1028E80013F0807F23D100207047032B03D8DFE843
:1028F80003F01404140A00207047C36A13F0807FA1
:102908000DD100207047C36AB3F1C07F09D0002001
:10291800704701207047012070470120704701204F
:102928007047012070470120704700207047012040
:102938007047000070B5044600F040FA002C5BD0E8
:102948000546002384F83430022384F835302268A1
:10295800136823F00103136023681A6812F0010F4B
:102968000AD000F02BFA401B0528F5D9202363650F
:10297800032084F8350070BD1A682048104061684B
:10298800A2680A43E1680A4321690A4361690A4364
:10299800A1690A43E1690A43216A0A430243616A59
:1029A80004291ED01A602668756925F00705636A30
:1029B8001D43042B07D1A36A1D43E36A1BB12046BC
:1029C800FFF770FF90B975612046FFF749FFE26D88
:1029D8003F239340836000206065012384F83530ED
:1029E800C9E7E16A206B01430A43DBE740236365DB
:1029F800012084F83500BEE70120BCE73F8010F0D5
:102A080038B5856D90F83440012C31D0012480F818
:102A1800344090F83540E4B2012C04D0002380F80B
:102A28003430022038BD0446022084F835000020E6
:102A380060652046FFF7FEFEE26D3F239340AB60E2
:102A48002268136843F0160313602268536943F041
:102A580080035361236C23B12268136843F0080391
:102A680013602268136843F0010313600020D9E75C
:102A78000220D7E7F0B583B0044600230193724BD8
:102A88001D68724BA3FB0535AD0A876D3E68C26DA4
:102A980008239340334210D003681A6812F0040FD9
:102AA8000BD01A6822F004021A60C26D0823934002
:102AB800BB60436D43F001034365E26D012393401E
:102AC800334209D02268526912F0800F04D0BB60EB
:102AD800636D43F002036365E26D04239340334260
:102AE80009D02268126812F0020F04D0BB60636D2F
:102AF80043F004036365E26D10239340334224D00E
:102B08002268126812F0080F1FD0BB6023681A6889
:102B180012F4802F0DD01B6813F4002F04D1236CFE
:102B28009BB12046984710E0A36C73B120469847A4
:102B38000BE01A6812F4807F03D11A6822F00802A9
:102B48001A60236C0BB120469847E26D202393400E
:102B5800334255D02268126812F0100F50D0BB6073
:102B680094F83530DBB2052B0ED023681A6812F4BE
:102B7800802F33D01B6813F4002F2AD1636C002BED
:102B88003ED0204698473BE02268136823F016039E
:102B980013602268536923F080035361236CA3B147
:102BA8002268136823F008031360E26D3F23934003
:102BB800BB60002384F83430012384F83530236D5A
:102BC800002B3FD0204698473CE0A36C002BE7D170
:102BD800EBE7E36BA3B12046984711E01A6812F4BB
:102BE800807F09D11A6822F010021A60002384F845
:102BF8003430012384F83530E36B0BB12046984715
:102C0800636DFBB1636D13F0010F17D0052384F8D2
:102C180035302268136823F001031360019B0133E8
:102C28000193AB4204D823681B6813F0010FF5D158
:102C3800002384F83430012384F83530E36C0BB179
:102C48002046984703B0F0BD08000020B5814E1B10
:102C5800074AD36823F4E0631B041B0C000200F44A
:102C6800E060184340F0BF6040F40030D060704727
:102C780000ED00E030B4174BDB68C3F30223C3F167
:102C88000704042C28BF04241D1D062D01D9033B6D
:102C980000E000234FF0FF3505FA04F421EA0401AF
:102CA800994005FA03F322EA03031943002809DBD4
:102CB8000901C9B200F1604000F5614080F80013D5
:102CC80030BC704700F00F000901C9B2024B19541B
:102CD800F6E700BF00ED00E014ED00E0002807DB98
:102CE80000F01F02400901239340024A42F82030B5
:102CF800704700BF00E100E00138B0F1807F0AD2E0
:102D0800064B5860064AF02182F82310002098608C
:102D180007221A6070470120704700BF10E000E0EA
:102D280000ED00E010B504460E4B18784FF47A73A6
:102D3800B3FBF0F30C4A1068B0FBF3F0FFF7DCFFCD
:102D480068B90F2C01D901200AE0002221464FF072
:102D5800FF30FFF78FFF054B1C60002000E00120CB
:102D680010BD00BF00000020080000200400002063
:102D780008B50B4B1A6842F400721A601A6842F4DC
:102D880080621A601A6842F480721A600320FFF7A2
:102D98005FFF0020FFF7C6FFFEF750FE002008BDCA
:102DA800003C0240034A1168034B1B780B44136034
:102DB800704700BF9CF8002000000020014B1868F5
:102DC800704700BF9CF800200F49D1F8883043F4C1
:102DD8007003C1F888300D4B1A6842F001021A607E
:102DE800002098601A6822F0847222F480321A60F7
:102DF800074A5A601A6822F480221A60D8604FF095
:102E080000638B60704700BF00ED00E000380240AF
:102E1800103000244A4B5A6822F440325A605A68EB
:102E280041680A435A600268536823F48073536008
:102E380002685368016943EA0123536002685368D2
:102E480023F0407353600268536881680B435360F2
:102E58000268936823F40063936002689368C1680A
:102E68000B439360826A374B9A4257D00268936843
:102E780023F07063936002689368816A0B439360E0
:102E88000268936823F04053936002689368C16AAC
:102E98000B4393600268936823F00203936002680F
:102EA8009368017E43EA4103936090F82030002B39
:102EB8003FD00268536843F4006353600268536864
:102EC80023F46043536001684B68426A013A43EA5D
:102ED80042334B600268D36A23F47003D3620168FB
:102EE800CB6AC269013A43EA0253CB62026893682B
:102EF80023F4007393600268936890F8301043EAF3
:102F0800412393600268936823F4806393600268A6
:102F18009368416943EA8123936070470268936824
:102F280023F0706393600268936823F040539360C2
:102F3800B0E70268536823F400635360CAE700BF30
:102F4800002301400100000F38B310B50446036C9C
:102F580043B1236C13F0100F0BD00120002384F829
:102F68003C3010BDFEF78AFD0023636484F83C30D2
:102F7800EFE7236C23F4885323F0020343F00203A2
:102F880023642046FFF746FF00206064236C23F08B
:102F9800030343F001032364E0E7012070470000C6
:102FA80030B583B00023019390F83C30012B00F03A
:102FB8009A80012380F83C300468A36813F0010F5D
:102FC80012D1A36843F00103A3604B4B1C684B4B21
:102FD800A3FB0434A40C04EB44040194019C1CB12D
:102FE800019C013C0194F9E703689C6814F0010F07
:102FF8007BD0046C24F4E06424F0010444F480746D
:1030080004645B6813F4806F05D0036C23F44053A9
:1030180043F480530364036C13F4805F38D0436C2B
:1030280023F00603436413460446002280F83C203C
:10303800826B3348D063A26B32481064A26B32486B
:10304800D06422686FF0220010602568686840F03C
:10305800806068602568A86840F48070A86020686F
:103068000A4600F14C01A06BFFF7CAFC274B5B68CE
:1030780013F01F0F27D12368254A934211D002F578
:103088008072934207D0234A934214D000202DE047
:1030980000234364C7E702F50072526812F01F0F5D
:1030A800F1D19A6812F0405F22D19A6842F08042CA
:1030B8009A6000201AE002F58072526812F0100F30
:1030C800EFD0002012E02368114A934201D000207B
:1030D8000CE09A6812F0405F0CD19A6842F0804286
:1030E8009A60002002E0022000E0002003B030BD1A
:1030F8000020FBE70020F9E70800002083DE1B43DF
:1031080043310008213100082D3100080023014017
:10311800002001400022014008B5806BFEF79AF8B4
:1031280008BD704708B5806B40230364436C43F0C7
:1031380004034364FFF7F5FF08BD08B5836B1A6CF9
:1031480012F0500F26D11A6C42F400721A641A68F1
:10315800916811F0405F19D1197EB9B9D16A11F49B
:10316800700F03D0916811F4806F0FD1516821F06E
:10317800200151601A6C22F480721A641A6C12F4DD
:10318800805F03D11A6C42F001021A641846FEF7F8
:1031980069F808BD1A6C12F0100F03D19B6BDB6C39
:1031A8009847F6E71846FFF7BCFFF2E730B482B05D
:1031B8000023019390F83C30012B00F0B6800123E6
:1031C80080F83C300B68092B3ED90568EA689BB249
:1031D80003EB43031E3B072404FA03F322EA030329
:1031E800EB600568EA688C680B8803EB43031E3BB9
:1031F80004FA03F31343EB604B68062B3AD80568CF
:103208006A6B03EB8303053B1F2404FA03F322EAEA
:1032180003036B6305686A6B4B6803EB8303053B29
:103228000C8804FA03F313436B630268404B9A4219
:1032380050D002683E4B9A4255D0002380F83C306B
:10324800184602B030BC704705682A699BB203EB88
:103258004303072404FA03F322EA03032B610568F6
:103268002A698C680B8803EB430304FA03F31343BE
:103278002B61C1E70C2B16D805682A6B03EB830377
:10328800233B1F2404FA03F322EA03032B63056894
:103298002A6B4B6803EB8303233B0C8804FA03F384
:1032A80013432B63C1E70568EA6A03EB8303413BD9
:1032B8001F2404FA03F322EA0303EB620568EA6AAF
:1032C8004B6803EB8303413B0C8804FA03F3134375
:1032D800EB62AAE70B68122BABD1164A536843F48A
:1032E80080035360A5E70B68103B012BA5D8114A52
:1032F800536843F4000353600B68102B9DD10E4BA9
:103308001B6802F1467202F52E3202F28332A2FBEA
:1033180003239B0C03EB83035A000192019B002BB0
:103328008BD0019B013B0193F8E7022089E700BF9E
:1033380000200140002301400800002070B110B5B2
:103348000446037933B1022323710020206101234D
:10335800237110BD4371FEF7E9FBF4E701207047C4
:10336800F8B5069C4679012E64D0012646710226DE
:103378000671002935D185682F4EEE6385682F4E7A
:103388002E6485682E4EEE640668356845F48055CF
:103398003560042C1FD0082C20D0CCB10E4617461F
:1033A8000D46044600293AD101680A6842F40052E1
:1033B8000A60324639468068FFF722FB22681368A4
:1033C800012101FA05F51D43156000206071F8BD63
:1033D80006680836E3E706680C36E0E70668103644
:1033E800DDE7C568174EEE63C568174E2E64C568DD
:1033F800164EEE640668356845F080553560042C35
:1034080007D0082C08D00CB10026C8E70668143687
:10341800C5E706681836C2E706681C36BFE70168C4
:103428000A6842F000520A6032463946C068FFF71F
:10343800E7FAC3E70220CAE75B3400086D340008E6
:103448007934000845350008553500085F3500080F
:10345800704710B5846B2046FFF7FAFF01232371EC
:1034680010BD704708B5806BFFF7FBFF08BD7047BC
:1034780010B5846B236943F0040323612046FFF7EA
:10348800F6FF0123237110BD704710B50446036889
:103498005A6B12F4005F05D123685A6B12F0005F73
:1034A80011D110BD04220271026942F001020261C9
:1034B8004FF400525A630268136823F48053136070
:1034C800FFF7E2FFE8E704222271226942F00202D4
:1034D80022614FF000525A632268136823F0805328
:1034E8001360204600F029F8DBE74379012B1FD051
:1034F80070B401254571022303710668336840F6EC
:10350800FE74944023EA04040B6849680B43934013
:103518002343336004682368C02101FA02F223EAD6
:1035280002032360057100234371184670BC70477D
:1035380002207047704770477047704710B5846B1A
:103548002046FFF7F7FF0123237110BD08B5806BF4
:10355800FFF7F1FF08BD10B5846B236943F004033E
:1035680023612046FFF7E8FF0123237110BD000007
:10357800DFF834D0002103E00C4B5B584350043192
:103588000B480C4B42189A42F6D30B4A02E0002330
:1035980042F8043B094B9A42F9D3FFF715FC00F0B7
:1035A80011F8FEF76FF9704700000220F04E00088E
:1035B800000000207400002074000020A0F8002003
:1035C800FEE7000070B50D4D0D4C641BA4100026DD
:1035D800A64209D10B4D0C4C01F076FB641BA410DC
:1035E8000026A64205D170BD55F8043B9847013620
:1035F800EEE755F8043B98470136F2E7E84E000835
:10360800E84E0008E84E0008EC4E00080244034665
:10361800934200D1704703F8011BF9E7000000004E
:1036280000B551EC100B2C4A21F00043934285B0B1
:1036380020DD2A4A934209DD10EE102A0B46FCF7DA
:10364800C3FD41EC100B05B05DF804FB684600F0C3
:1036580007F900F00300012817D002282FD028B35B
:1036680001209DED021B9DED000B01F039F951EC95
:10367800100BE6E79FED161B00F0D6FB51EC100B84
:1036880041EC100B05B05DF804FB9DED021B9DEDB0
:10369800000B01F025F953EC102B10EE100A03F182
:1036A800004141EC100B05B05DF804FB9DED021BD9
:1036B8009DED000B00F0B8FB51EC100BC1E79DED40
:1036C800021B9DED000B00F0AFFBE4E7AFF30080B9
:1036D8000000000000000000FB21E93FFFFFEF7F32
:1036E80000B551EC100B2C4A21F00043934285B0F1
:1036F80027DD2A4A934209DD10EE102A0B46FCF713
:1037080063FD41EC100B05B05DF804FB684600F062
:10371800A7F800F0030001281FD0022830D028B3F2
:103728009DED021B9DED000B00F07EFB53EC102B72
:1037380010EE100A03F1004141EC100B05B05DF8E2
:1037480004FB00209FED121B01F0CAF851EC100B8E
:1037580041EC100B05B05DF804FB9DED021B9DEDDF
:10376800000B00F061FB51EC100BCAE701209DED46
:10377800021B9DED000B01F0B3F851EC100BC0E7F4
:1037880001209DED021B9DED000B01F0A9F8CDE78E
:103798000000000000000000FB21E93FFFFFEF7F71
:1037A8002DE9F0432DED028B8BB055EC104B00F05A
:1037B8006DFA284BB0EE408AF0EE608A93F900600B
:1037C800731C12D022462B4620462946FDF74EF997
:1037D800074650B94FF000084FF000092046294627
:1037E80042464B46FDF71AF940B9B0EE480AF0EEEA
:1037F800680A0BB0BDEC028BBDE8F0830122164BC2
:1038080008970092CDE90445CDE90245019396B1A8
:1038180042464B4640464946FCF7B8FF022ECDE9E2
:1038280006010AD101F04AFA21230360089B63B913
:103838009DED068BD9E7CDE90689684601F0A8F920
:103848000028EFD0089B002BF2D001F037FA089B34
:103858000360EDE770000020004D00080000000044
:103868002DE9F04F53EC102B974923F000458D427A
:103878008FB040F3878095498D421E46044629DC67
:10388800002E194610EE100A85A3D3E9002340F351
:10389800AA81FCF799FC8E4B9D4206460F4600F024
:1038A800878081A3D3E90023FCF78EFC02460B46F0
:1038B800C4E9002339463046FCF786FC7AA3D3E9ED
:1038C8000023FCF781FCC4E90201012738460FB048
:1038D800BDE8F08F7F498D4240F38A807E498D4252
:1038E8005BDC2F15A7F2164710EE100AA5EB07515F
:1038F80090468946FDF7D0F8FCF7B4FD82468B4622
:103908004046494652465B46CDE908ABFCF75CFCAD
:103918000022724BFCF710FE89468046FDF7BCF882
:103928000546FCF79FFD02460B4640464946CDE951
:103938000A23FCF749FC0022684BFCF7FDFD002236
:103948000023CDE90C01FDF75FF8002800F049815C
:10395800002D0CBF01230223614A019202213A463D
:10396800009108A8214600F0A3FB002E0746ADDA17
:103978006268E36802F1004203F100434742626073
:10398800E360A3E700240025002780ED000BC0E9D1
:10399800024538460FB0BDE8F08F10EE100A194600
:1039A800FCF712FC0027C4E90201C4E900018DE715
:1039B8003FA3D3E90023FCF707FC3FA3D3E9002387
:1039C80006460F46FCF700FC02460B46C4E90023F6
:1039D80030463946FCF7F8FB37A3D3E90023FCF758
:1039E800F3FB0127C4E9020138460FB0BDE8F08FA8
:1039F80001F040F859EC108B10EE100A30A3D3E90F
:103A080000234946FCF798FD0022364BFCF7DEFB05
:103A1800FDF742F80746FCF725FD21A3D3E900236B
:103A2800CDE90401FCF788FD02460B4640464946AD
:103A3800FCF7CAFB1CA3D3E9002382468B46DDE9C9
:103A48000401FCF779FD1F2FCDE902014EDC024687
:103A58000B4650465946FCF7B7FB234B7A1E804667
:103A680053F82230AB42894648D042464B46C4E917
:103A7800008950465946FCF7A7FBDDE90223FCF70D
:103A8800A3FB002EC4E90201BFF620AF09F10045EF
:103A980001F100437F42C4E90085C4E9020315E748
:103AA80000004054FB21F93F3163621A61B4D03DF4
:103AB8000000601A61B4D03D7370032E8A19A33BCD
:103AC80083C8C96D305FE43FFB21E93F7BD90240E1
:103AD800FB21F93FFB213941FFFFEF7F00007041D7
:103AE800884D00080000E03F084D0008DDE902238A
:103AF80050465946FCF768FB804689462D15C9F3A0
:103B08000A53EB1A102BB0DD57A3D3E90023DDE9E4
:103B18000401FCF711FD8046894602460B465046D3
:103B28005946FCF751FB02460B4650465946CDE92B
:103B38000623FCF749FB42464B46FCF745FB4CA3E2
:103B4800D3E9002380468946DDE90401FCF7F4FC4B
:103B580042464B46FCF738FBDDE906ABCDE90201EE
:103B68000B46024659465046FCF72EFBC1F30A5352
:103B7800ED1A312D804689467FF777AF3FA3D3E909
:103B88000023DDE90401FCF7D7FC8046894602469C
:103B98000B46DDE90601FCF717FB02460B46824699
:103BA8008B46DDE90601FCF70FFB42464B46FCF766
:103BB8000BFB34A3D3E9002380468946DDE90401E1
:103BC800FCF7BAFC42464B46FCF7FEFA02460B46A7
:103BD80050465946CDE90223FCF7F6FA8046894655
:103BE80043E70323B8E6FCF7F1FA234B9D42064668
:103BF8000F4616D01AA3D3E90023FCF7E7FA0246CA
:103C08000B46C4E9002339463046FCF7DDFA14A315
:103C1800D3E90023FCF7DAFA4FF0FF37C4E90201D1
:103C280054E611A3D3E90023FCF7D0FA10A3D3E993
:103C380000230F460646FCF7C9FA02460B46C4E9BC
:103C4800002339463046FCF7BFFA09A3D3E900231D
:103C5800FCF7BCFA4FF0FF37C4E9020136E600BFB3
:103C68003163621A61B4D03D0000601A61B4D03D7E
:103C78007370032E8A19A33BFB21F93F0000002E25
:103C88008A19A33BC14920259A837B392DE9F04144
:103C9800634A55EC104BAA4300F09D80002D2B463B
:103CA80010EE101A53DD5FEA255C00F0B180C3F313
:103CB8001303ACF2FF3CCA0F43F480131CF0010F4E
:103CC80002EB43034FEA410203D0D20F02EB430356
:103CD8008A0000274FEA6C0C384616214FF400146E
:103CE80005199D4202DC5B1B281927445B0001393A
:103CF80003EBD2734FEA54044FEA4202F0D10D4667
:103D08008E4620264FF0004109E042D0D40F013EF4
:103D18004FEA510104EB43034FEA420242D0834287
:103D280001EB0E04F1DD002C04EB010E09DB8046EB
:103D38001B1A944288BF03F1FF33121B0D444046FF
:103D4800E4E7BEF1000FF2DB00F10108F0E725F02F
:103D58000042224337D0002D4DD1CC0A153B4905EE
:103D68002246002CF9D0E50255D4002000E0284670
:103D78005200D40200F10105F9D514460A46A940BB
:103D8800C5F1200522FA05F5A3EB000C45EA04036A
:103D98008DE79442BAD8002C04EB010ED1DB98468B
:103DA8000023CAE7134310D16E087910FB0701F10D
:103DB8007F5101F5001148BF46F0004601EB0C5356
:103DC800324643EC102BBDE8F0816A1C16BF691C13
:103DD80001374E08E9E710EE102A2B4610EE100ABC
:103DE8002946FCF7A9FB22462B46FCF7EFF941ECE4
:103DF800100BBDE8F08110EE102A20462946FCF78A
:103E0800E3F902460B46FCF7C1FC41EC100BDAE77C
:103E18002A466346A9E70A4620254FF0FF30B1E756
:103E28000000F07F000000002DE9F04F57EC106B08
:103E38002DED028BB0EE418AF0EE618A27F0004941
:103E4800B9F1795F83B072DA10EE100A3946FCF7DF
:103E580023FE002800F0F68032463B4630463946BD
:103E6800FCF76AFB7CA3D3E9002304460D46FCF764
:103E780063FB7BA3D3E90023FCF7A8F922462B4672
:103E8800FCF75AFB78A3D3E90023FCF79DF92246F7
:103E98002B46FCF751FB76A3D3E90023FCF796F9F0
:103EA80022462B46FCF748FB73A3D3E90023FCF713
:103EB8008BF922462B46FCF73FFB71A3D3E900237D
:103EC800FCF784F922462B46FCF736FB82468B46E4
:103ED8000022714B20462946FCF72EFB52468046AD
:103EE80089465B4620462946FCF726FB53EC182BEF
:103EF80004460D4630463946FCF71EFB02460B4683
:103F080020462946FCF760F902460B4640464946DA
:103F1800FCF75AF902460B4600206049FCF754F9B1
:103F280041EC100B03B0BDEC028BBDE8F08F10EE36
:103F3800102A10EE100A3B463946FCF7FDFA46A354
:103F4800D3E9002304460D46FCF7F6FA44A3D3E967
:103F58000023FCF73BF922462B46FCF7EDFA42A377
:103F6800D3E90023FCF730F922462B46FCF7E4FAA4
:103F78003FA3D3E90023FCF729F922462B46FCF797
:103F8800DBFA3DA3D3E90023FCF71EF922462B46B2
:103F9800FCF7D2FA3AA3D3E90023FCF717F92B462A
:103FA8002246FCF7C9FA3E4B994582468B468FDD7F
:103FB8003C4B99453DDC0022A9F500130020374908
:103FC80090469946FCF700F9CDE900010022324BF2
:103FD80020462946FCF7B0FA42464B46FCF7F4F86F
:103FE8005246804689465B4620462946FCF7A4FA95
:103FF80053EC182B04460D4630463946FCF79CFA1C
:1040080002460B4620462946FCF7DEF802460B46D8
:1040180040464946FCF7D8F802460B46DDE9000160
:10402800FCF7D2F841EC100B03B0BDEC028BBDE8F5
:10403800F08F9FED157B4FF000088DED007BDFF8CA
:104048006890C3E79FED120B03B0BDEC028BBDE88F
:10405800F08F00BFAFF30080D43888BEE9FAA8BD5E
:10406800C4B1B4BD9EEE213EAD529C804F7E923EBF
:104078009015CB19A001FA3E7751C1166CC1563F75
:104088004C5555555555A53F000000000000E73F29
:10409800000000000000F03F0000E03F0000F03F9B
:1040A8003233D33F0000E93F0000D23F0000000058
:1040B8002DE9F04FADF5197DB94CA29D089354F840
:1040C80025400594013B12F1140F04900B910393C2
:1040D800C0F2B282B349D31E81FB0301DB17C3EBE5
:1040E800A10307930133A3EB8303DB00D3180693E3
:1040F800079A039BD61A059A12EB03081AD408F1FB
:10410800010800240025B04420AFDDF88C9208E0B7
:1041180059F82600FCF7A6F901364645E7E80201FA
:1041280008D0002EF4DA0136204629464645E7E84D
:104138000201F6D1059B002B089B4FEAC3030193AC
:104148002ADB049A20A902EB030801EB030A059B6A
:1041580072AA02EBC30B0DF5E079039B002B4FF01D
:1041680000064FF0000711DB049C554675E9022351
:10417800F4E80201FCF7E0F902460B4630463946FE
:10418800FCF724F8444506460F46EFD1E9E80267F4
:10419800D9450AF1080AE0D10198049C05990191D2
:1041A80020448B0083460BA8A3F10802C3180A9386
:1041B8000CAB13440993019A98A901EBC203002A96
:1041C80053E9284529DD0DF5E07A0AEBC2080DF11F
:1041D80030090022744B20462946FCF7ADF9FCF75C
:1041E8005BFCFCF73FF90022704B06460F46FCF7D4
:1041F800A3F902460B4620462946FBF7E5FFFCF7E4
:104208004BFC78E9022349F8040B39463046FBF7A2
:10421800DDFFD04504460D46DBD1DDF8189045ECAE
:10422800104B484600F0B8FC55EC104B00224FF0FC
:104238007F5310EE100A2946FCF77EF941EC100B6B
:1042480000F022FC002251EC100B594BFCF774F9DA
:1042580002460B4620462946FBF7B6FF0D460446A4
:10426800FCF71AFC8046FCF7FDF80B460246294687
:104278002046FBF7A9FF4B46002B06460F4640F3A6
:104288009980019A0CA9013AC9F1180351F82250F2
:1042980045FA03F101FA03F3EB1AC9F117050CA863
:1042A80043FA05F5002D40F82230884400F38C804D
:1042B8000022002330463946FCF7A6FB002800F010
:1042C8009282019B059A03F1FF394A4510DC03F1FC
:1042D80080430CAA013B0A9802EB8303002253F89F
:1042E8000419834242EA0102F9D1002A40F0DB8036
:1042F800059B0CAA013B52F82330002B40F0CE80DE
:10430800099A012352F8041901330029FAD00199B6
:104318004A1CCB1802939146079B089902EB030AA3
:10432800019B0B441D4620AB0AF1804A03EBC505EF
:10433800A39B0AF1FF3A03EB8A0A70AB03EBC203B3
:1043480001935AF8040FFCF78DF80B4603990246BF
:10435800A8460029E8E802234FF000064FF00007BE
:1043680011DB049C01E075E90223F4E80201FCF783
:10437800E3F802460B4630463946FBF727FF5C4513
:1043880006460F46EFD1019BE3E802670193029BC3
:1043980009F1010999454546D3DD01930BE700BFB3
:1043A800D04E0008ABAAAA2A0000703E0000704157
:1043B8000000204069D1019B0CAA013B52F8235010
:1043C800ED15002D7FF774AF019B002B08F1010854
:1043D80040F307820C9C002C3AD1019B012B09D099
:1043E8000CA9012251F8044F531C9CBB1A46019B8F
:1043F8009342F7D1069B002B0EDD012B00F01181B3
:10440800022B09D1019B5A1E0CAB0CA953F8223080
:10441800C3F3150341F82230022D7FF449AF324629
:104428003B4600209449FBF7CFFE06460F46002C7A
:104438003FF43EAF06989FED8C0B00F0ADFB304685
:10444800394653EC102BFBF7BFFE06460F462FE705
:10445800012300220CA9C4F1807441F8224001997B
:10446800994210DD0CAA0CA852F8232000EB830314
:1044780000EB81006FF07F4100E01A688A1A43F868
:10448800042B8342F9D10124B4E700227B4BFCF7CB
:10449800D9FA002840F0D580054609E7019B5A1C47
:1044A8009146029238E70CAB069A53F82930CDF8BA
:1044B8001C80183A0495069273B9019B03F1804356
:1044C800023B0CA901EB830353F8041909F1FF39E6
:1044D800183A0029F8D0069206989FED630B00F071
:1044E8005BFBB9F1000F55EC104BC0F2DD814FEAD0
:1044F800C90370AA02EB0308069309F101060CAB85
:10450800DFF87CB14FF0000A08F1080703EB8606D4
:1045180056F8040DFBF7A6FF22462B46FCF70CF8CD
:104528005B4667E90201524620462946FCF704F833
:104538000CAB9E4204460D46EAD1CDF80890DDF852
:10454800149048ABB9F1000F0393C34601934FF0A1
:10455800000A2BDBDFF82C815D4645A3D3E9002355
:1045680000260027002403E0544510DCF8E8022365
:10457800F5E80201FBF7E0FF02460B4630463946F4
:10458800FBF724FE0134A14506460F46ECDA019BF1
:10459800029AE3E8026792450193ABF1080B0AF12E
:1045A800010306D0B9F1000F9A46D3DA0026002796
:1045B800EDE7A29BDDF80890032B2BD8DFE813F07A
:1045C800F600E500E500660048AB002400250393EB
:1045D80003992B462246D1E90001FBF7F5FD049B20
:1045E800002B40F040810B9BB9F1000FC3E9004557
:1045F8000DDD4AAD01240134F5E80223FBF7E6FDA1
:10460800A145F8DA049B13B101F1004319460B9B4D
:10461800C3E90201079B03F007000DF5197DBDE80A
:10462800F08F019B5A1E0CAB0CA953F82230C3F330
:10463800160341F82230EFE600216FF017030791C7
:1046480054E5019B002B08F10108C8BF02253FF77C
:10465800C1AE32463B4600200749FBF7B5FD0225AF
:1046680006460F4624E600BF000000000000F03FA9
:1046780000000040FB21F93F0000F03F0000E03F50
:104688000000703E984E000848AB0393B9F1000F44
:1046980040F31D81039A4FEAC9030193D318D3E964
:1046A80000AB984678E9026752465B463046394681
:1046B800FBF78CFD04460D4602460B46304639464C
:1046C800FBF782FD5B465246FBF780FD039B4345A3
:1046D800A246AB46C8E90201C8E90045E2D1B9F1F2
:1046E800010F40F3F480019B039A09F1005909F185
:1046F800FF3913444FEAC901D3E9006701F1080AF9
:10470800019192440DF5947B7AE9028932463B4641
:1047180040464946FBF75AFD04460D4602460B46FD
:1047280040464946FBF750FD32463B46FBF74EFDF7
:10473800D34526462F46CAE90201CAE90045E3D116
:10474800019C039B1034002000211C4403F1100538
:1047580074E90223FBF73AFDA542F9D1039C049EB4
:10476800D4E90023D4E90245002E40F087800B9E4F
:10477800C6E90023079BC6E9040103F00700C6E960
:1047880002450DF5197DBDE8F08F069E039F08369A
:10479800002400253E4476E9022320462946FBF7FB
:1047A80015FDB74204460D46F5D111E7069C039D59
:1047B8000834002000212C4474E90223FBF706FD8D
:1047C800A542F9D1049B13B101F1004319460B9B93
:1047D800C3E90001079B03F007000DF5197DBDE84B
:1047E800F08F002406E6069B0495584247EC106BB0
:1047F800CDF81C8000F0D0F955EC104B0022354B59
:1048080010EE100A2946FCF71DF910B30022324BAE
:1048180020462946FBF790FEFCF73EF90646FBF7D3
:1048280021FE00222B4BFBF787FE02460B46204653
:104838002946FBF7C9FCFCF72FF9069B019A1833A8
:1048480002F1010906930CAB43F8220043F82960F2
:1048580042E620462946FCF71FF9019B0CAA994617
:1048680042F8230038E622460B9C05F10043B9F1D3
:10487800000FC4E900233FF7BCAEC5E603F10047CB
:1048880001F100430B99C1E90403079B26469446AE
:1048980005F1004403F00700C1E900C7C1E902645B
:1048A8000DF5197DBDE8F08FA29B032B3FF6B2AE44
:1048B80001A252F823F000BFD1480008D1450008F2
:1048C800D145000891460008002000217AE7002021
:1048D800002143E7000070410000703E0000000026
:1048E8002DE9F04F55EC104B2DED028BB0EE418ABF
:1048F800F0EE618A25F00043B3F1795F83B0824618
:1049080007DA10EE100A2946FCF7C6F8002800F06E
:104918008E8022462B4620462946FBF70DFE06468A
:104928000F4602460B4620462946FBF705FE47A3DD
:10493800D3E900238046894630463946FBF7FCFD1B
:1049480044A3D3E90023FBF73FFC32463B46FBF781
:10495800F3FD42A3D3E90023FBF738FC32463B467C
:10496800FBF7EAFD3FA3D3E90023FBF72DFC324612
:104978003B46FBF7E1FD3DA3D3E90023FBF726FC0B
:10498800CDE90001BAF1000F37D000222E4B51ECCF
:10499800180BFBF7D1FDDDE9002382468B46404624
:1049A8004946FBF7C9FD02460B4650465946FBF7F8
:1049B8000BFC32463B46FBF7BFFD53EC182BFBF7CD
:1049C80003FC1FA3D3E9002306460F464046494689
:1049D800FBF7B2FD02460B4630463946FBF7F6FBBD
:1049E80002460B4620462946FBF7EEFB41EC100B2E
:1049F80003B0BDEC028BBDE8F08F02460B46304693
:104A08003946FBF799FD0EA3D3E90023FBF7DCFB3E
:104A180042464B46FBF790FD22462B46FBF7D6FB5A
:104A280041EC100B03B0BDEC028BBDE8F08F45ECF8
:104A3800104B03B0BDEC028BBDE8F08FAFF30080E4
:104A4800495555555555C53F0000E03F7CD5CF5ACF
:104A58003AD9E53DEB9C2B8AE6E55A3E7DFEB157F7
:104A6800E31DC73ED561C119A0012A3FA6F8101160
:104A78001111813F51EC100B10EE102A21F0004368
:104A880043EC102B704700BF51EC100BF8B5C1F385
:104A98000A53A3F2FF35132D0C4610EE106A30DCD2
:104AA800002D1EDB384F2F4107EA010303432DD0A9
:104AB80033A3D3E90023FBF789FB00220023FBF78C
:104AC800CBFF48B1002C04DA4FF4801343FA05F504
:104AD8002C4424EA070400262346324643EC102BD4
:104AE800F8BD27A3D3E90023FBF770FB00220023BE
:104AF800FBF7B2FF0028EFD0002C29DB0026344654
:104B0800EAE7332D05DDB5F5806F19D041EC100BC0
:104B1800F8BDA3F213434FF0FF37DF400742F5D04B
:104B280017A3D3E90023FBF751FB00220023FBF76F
:104B380093FF0028D0D0002C13DB26EA0706CBE72A
:104B480010EE102A0B46FBF741FB41EC100BF8BDA9
:104B580024F000430D4A1E43002E18BF14460026B9
:104B6800BAE7142D08D00123C5F1340503FA05F579
:104B7800AE1928BFE418E0E70134DEE7AFF30080A0
:104B88009C7500883CE4377EFFFF0F000000F0BFF3
:104B9800002070470000000038B553EC102BC3F319
:104BA8000A511C46054681BB10EE101A23F000443A
:104BB800214329D0194600223D4B3E4C10EE100AE5
:104BC800FBF7BAFCA54202460B4616DB0C46C1F3BE
:104BD8000A513639294440F2FE70814221DC00290D
:104BE80047DC11F1350F34DA4CF250318D4218DCC4
:104BF800002B27A1D1E9000144DB25A3D3E9002339
:104C0800FBF79AFC41EC100B38BD40F2FF70814273
:104C1800E0D110EE100A1946FBF7D8FA41EC100B58
:104C280038BD002B1CA1D1E9000107DB1AA3D3E989
:104C38000023FBF781FC41EC100B38BD18A1D1E92A
:104C4800000115A3D3E90023FBF776FC41EC100B18
:104C5800F3E724F0FF4424F4E004363144EA015336
:104C6800104619460022144BFBF766FC41EC100B6A
:104C780038BD24F0FF4424F4E00444EA015343EC33
:104C8800102B38BD08A1D1E90001B6E7AFF30080C9
:104C980059F3F8C21F6EA5019C7500883CE4377E65
:104CA8009C7500883CE437FE59F3F8C21F6EA58155
:104CB80000005043B03CFFFF0000903C014B1868D7
:104CC800704700BF0C000020F8B500BFF8BC08BC56
:104CD8009E467047F8B500BFF8BC08BC9E467047B2
:104CE8000006101600061016000000000000000064
:104CF80001020304060708097371727400000000BA
:104D0800FB21F93FFB2109407CD91240FB211940C6
:104D18007A6A1F407CD92240BBFD2540FB212940EF
:104D28003A462C407A6A2F405C4731407CD9324061
:104D38009C6B3440BBFD3540DB8F3740FB2139404D
:104D48001BB43A403A463C405AD83D407A6A3F4004
:104D58004C7E40405C4741406C1042407CD9424008
:104D68008CA243409C6B4440AC344540BBFD45405D
:104D7800CBC64640DB8F4740EB584840FB214940B3
:104D880083F9A200444E6E00FC291500D157270074
:104D9800DD34F50062DBC0003C999500419043008A
:104DA8006351FE00BBDEAB00B761C5003A6E24005C
:104DB800D24D42004906E00009EA2E001C92D100BB
:104DC800EB1DFE0029B11C00E83EA700F535820066
:104DD80044BB2E009CE98400B4267000417E5F002D
:104DE800D6913900538339009CF439008B5F8400D5
:104DF80028F9BD00F81F3B00DEFF97000F9805005B
:104E0800112FEF000A5A8B006D1F6D00CF7E360000
:104E180009CB2700464FB7009E663F002DEA5F008A
:104E2800BA277500E5EBC7003D7BF100F7390700AD
:104E380092528A00FB6BEA001FB15F00085D8D008B
:104E4800300356007BFC4600F0AB6B0020BCCF0063
:104E580036F49A00E3A91D005E619100081BE60084
:104E680085996500A0145F008D40680080D8FF0018
:104E780027734D0006063100CA561500C9A87300ED
:104E88007BE260006B8CC00000000040FB21F93F12
:104E9800000000002D44743E000000809846F83C55
:104EA8000000006051CC783B00000080831BF03983
:104EB8000000004020257A38000000802282E33676
:104EC800000000001DF36935020000000300000027
:084ED8000400000006000000C8
:084EE000E0BCFF7F01000000AF
:044EE800AD01000810
:044EEC008901000830
:104EF00001000000100000000024F4001000002059
:104F000000000000000000000000000000000000A1
:104F10000000000000000000000000000000000091
:104F20000000000000000000000000000000000081
:104F30000000000000000000000000000000000071
:104F40000000000000000000000000000000000061
:104F50000000000000000000000000000000000051
:044F6000010000004C
:040000050800357941
:00000001FF
